{
  "contractName": "Prediction",
  "abi": [
    {
      "inputs": [
        {
          "internalType": "address payable",
          "name": "_oracle",
          "type": "address"
        }
      ],
      "stateMutability": "nonpayable",
      "type": "constructor"
    },
    {
      "inputs": [
        {
          "internalType": "enum Prediction.Side",
          "name": "",
          "type": "uint8"
        }
      ],
      "name": "bets",
      "outputs": [
        {
          "internalType": "uint256",
          "name": "",
          "type": "uint256"
        }
      ],
      "stateMutability": "view",
      "type": "function"
    },
    {
      "inputs": [],
      "name": "electionFinished",
      "outputs": [
        {
          "internalType": "bool",
          "name": "",
          "type": "bool"
        }
      ],
      "stateMutability": "view",
      "type": "function"
    },
    {
      "inputs": [],
      "name": "result",
      "outputs": [
        {
          "internalType": "enum Prediction.Side",
          "name": "winner",
          "type": "uint8"
        },
        {
          "internalType": "enum Prediction.Side",
          "name": "loser",
          "type": "uint8"
        }
      ],
      "stateMutability": "view",
      "type": "function"
    },
    {
      "inputs": [
        {
          "internalType": "enum Prediction.Side",
          "name": "_side",
          "type": "uint8"
        }
      ],
      "name": "placeBet",
      "outputs": [],
      "stateMutability": "payable",
      "type": "function"
    },
    {
      "inputs": [],
      "name": "whithdraw",
      "outputs": [],
      "stateMutability": "nonpayable",
      "type": "function"
    },
    {
      "inputs": [
        {
          "internalType": "enum Prediction.Side",
          "name": "_winner",
          "type": "uint8"
        },
        {
          "internalType": "enum Prediction.Side",
          "name": "_loser",
          "type": "uint8"
        }
      ],
      "name": "reportResult",
      "outputs": [],
      "stateMutability": "nonpayable",
      "type": "function"
    }
  ],
  "bytecode": "0x608060405234801561001057600080fd5b50604051610d69380380610d69833981810160405281019061003291906100dc565b80600360006101000a81548173ffffffffffffffffffffffffffffffffffffffff021916908373ffffffffffffffffffffffffffffffffffffffff16021790555050610109565b600080fd5b600073ffffffffffffffffffffffffffffffffffffffff82169050919050565b60006100a98261007e565b9050919050565b6100b98161009e565b81146100c457600080fd5b50565b6000815190506100d6816100b0565b92915050565b6000602082840312156100f2576100f1610079565b5b6000610100848285016100c7565b91505092915050565b610c51806101186000396000f3fe6080604052600436106100555760003560e01c8063430468441461005a5780634ec942b714610076578063653721471461009f5780637e0ecc00146100cb5780637fe95ffb14610108578063beab6e7e1461011f575b600080fd5b610074600480360381019061006f9190610772565b61014a565b005b34801561008257600080fd5b5061009d6004803603810190610098919061079f565b61027c565b005b3480156100ab57600080fd5b506100b46103d9565b6040516100c2929190610856565b60405180910390f35b3480156100d757600080fd5b506100f260048036038101906100ed9190610772565b610405565b6040516100ff9190610898565b60405180910390f35b34801561011457600080fd5b5061011d61041d565b005b34801561012b57600080fd5b50610134610735565b60405161014191906108ce565b60405180910390f35b60001515600360149054906101000a900460ff161515146101a0576040517f08c379a000000000000000000000000000000000000000000000000000000000815260040161019790610946565b60405180910390fd5b34600160008360018111156101b8576101b76107df565b5b60018111156101ca576101c96107df565b5b815260200190815260200160002060008282546101e79190610995565b9250508190555034600260003373ffffffffffffffffffffffffffffffffffffffff1673ffffffffffffffffffffffffffffffffffffffff1681526020019081526020016000206000836001811115610243576102426107df565b5b6001811115610255576102546107df565b5b815260200190815260200160002060008282546102729190610995565b9250508190555050565b3373ffffffffffffffffffffffffffffffffffffffff16600360009054906101000a900473ffffffffffffffffffffffffffffffffffffffff1673ffffffffffffffffffffffffffffffffffffffff161461030c576040517f08c379a000000000000000000000000000000000000000000000000000000000815260040161030390610a15565b60405180910390fd5b60001515600360149054906101000a900460ff16151514610362576040517f08c379a000000000000000000000000000000000000000000000000000000000815260040161035990610a81565b60405180910390fd5b816000800160006101000a81548160ff02191690836001811115610389576103886107df565b5b0217905550806000800160016101000a81548160ff021916908360018111156103b5576103b46107df565b5b02179055506001600360146101000a81548160ff0219169083151502179055505050565b60008060000160009054906101000a900460ff16908060000160019054906101000a900460ff16905082565b60016020528060005260406000206000915090505481565b6000600260003373ffffffffffffffffffffffffffffffffffffffff1673ffffffffffffffffffffffffffffffffffffffff16815260200190815260200160002060008060000160009054906101000a900460ff166001811115610484576104836107df565b5b6001811115610496576104956107df565b5b8152602001908152602001600020549050600081116104ea576040517f08c379a00000000000000000000000000000000000000000000000000000000081526004016104e190610aed565b60405180910390fd5b60011515600360149054906101000a900460ff16151514610540576040517f08c379a000000000000000000000000000000000000000000000000000000000815260040161053790610b59565b60405180910390fd5b6000600160008060000160009054906101000a900460ff16600181111561056a576105696107df565b5b600181111561057c5761057b6107df565b5b81526020019081526020016000205482600160008060000160019054906101000a900460ff1660018111156105b4576105b36107df565b5b60018111156105c6576105c56107df565b5b8152602001908152602001600020546105df9190610b79565b6105e99190610bea565b826105f49190610995565b90506000600260003373ffffffffffffffffffffffffffffffffffffffff1673ffffffffffffffffffffffffffffffffffffffff168152602001908152602001600020600080600181111561064c5761064b6107df565b5b600181111561065e5761065d6107df565b5b8152602001908152602001600020819055506000600260003373ffffffffffffffffffffffffffffffffffffffff1673ffffffffffffffffffffffffffffffffffffffff16815260200190815260200160002060006001808111156106c6576106c56107df565b5b60018111156106d8576106d76107df565b5b8152602001908152602001600020819055503373ffffffffffffffffffffffffffffffffffffffff166108fc829081150290604051600060405180830381858888f19350505050158015610730573d6000803e3d6000fd5b505050565b600360149054906101000a900460ff1681565b600080fd5b6002811061075a57600080fd5b50565b60008135905061076c8161074d565b92915050565b60006020828403121561078857610787610748565b5b60006107968482850161075d565b91505092915050565b600080604083850312156107b6576107b5610748565b5b60006107c48582860161075d565b92505060206107d58582860161075d565b9150509250929050565b7f4e487b7100000000000000000000000000000000000000000000000000000000600052602160045260246000fd5b6002811061081f5761081e6107df565b5b50565b60008190506108308261080e565b919050565b600061084082610822565b9050919050565b61085081610835565b82525050565b600060408201905061086b6000830185610847565b6108786020830184610847565b9392505050565b6000819050919050565b6108928161087f565b82525050565b60006020820190506108ad6000830184610889565b92915050565b60008115159050919050565b6108c8816108b3565b82525050565b60006020820190506108e360008301846108bf565b92915050565b600082825260208201905092915050565b7f656c656374696f6e2069732066696e6973686564210000000000000000000000600082015250565b60006109306015836108e9565b915061093b826108fa565b602082019050919050565b6000602082019050818103600083015261095f81610923565b9050919050565b7f4e487b7100000000000000000000000000000000000000000000000000000000600052601160045260246000fd5b60006109a08261087f565b91506109ab8361087f565b92508282019050808211156109c3576109c2610966565b5b92915050565b7f6f6e6c79206f7261636c65000000000000000000000000000000000000000000600082015250565b60006109ff600b836108e9565b9150610a0a826109c9565b602082019050919050565b60006020820190508181036000830152610a2e816109f2565b9050919050565b7f656c656374696f6e2069732066696e6973686564000000000000000000000000600082015250565b6000610a6b6014836108e9565b9150610a7682610a35565b602082019050919050565b60006020820190508181036000830152610a9a81610a5e565b9050919050565b7f796f7520646f206e6f74206861766520616e792077696e6e696e672062657400600082015250565b6000610ad7601f836108e9565b9150610ae282610aa1565b602082019050919050565b60006020820190508181036000830152610b0681610aca565b9050919050565b7f656c656374696f6e206e6f742066696e69736865640000000000000000000000600082015250565b6000610b436015836108e9565b9150610b4e82610b0d565b602082019050919050565b60006020820190508181036000830152610b7281610b36565b9050919050565b6000610b848261087f565b9150610b8f8361087f565b9250828202610b9d8161087f565b91508282048414831517610bb457610bb3610966565b5b5092915050565b7f4e487b7100000000000000000000000000000000000000000000000000000000600052601260045260246000fd5b6000610bf58261087f565b9150610c008361087f565b925082610c1057610c0f610bbb565b5b82820490509291505056fea264697066735822122004083c645056dcdeb52c5950cd67b7c4ecade9f1b9f15a60d93a5c09d757da0264736f6c63430008130033",
  "immutableReferences": {},
  "source": "// SPDX-License-Identifier: MIT\n\npragma solidity ^0.8.19;\n\ncontract Prediction {\n    enum Side {\n        Twitter,\n        Threads\n    }\n    struct Result {\n        Side winner;\n        Side loser;\n    }\n    Result public result;\n\n    mapping(Side => uint) public bets;\n    mapping(address => mapping(Side => uint)) betsPerGambler;\n\n    address payable oracle;\n    bool public electionFinished;\n\n    constructor(address payable _oracle) {\n        oracle = _oracle;\n    }\n\n    function placeBet(Side _side) external payable {\n        require(electionFinished == false, \"election is finished!\");\n        bets[_side] += msg.value;\n        betsPerGambler[msg.sender][_side] += msg.value;\n    }\n\n    function whithdraw() external {\n        uint gamblerBet = betsPerGambler[msg.sender][result.winner];\n        require(gamblerBet > 0, \"you do not have any winning bet\");\n        require(electionFinished == true, \"election not finished\");\n        uint gain = gamblerBet + bets[result.loser] * gamblerBet / bets[result.winner];\n        betsPerGambler[msg.sender][Side.Twitter] = 0;\n        betsPerGambler[msg.sender][Side.Threads] = 0;\n       payable(msg.sender).transfer(gain);\n    }\n    function reportResult(Side _winner , Side _loser) external {\n        require(oracle == msg.sender , 'only oracle');\n        require(electionFinished == false , 'election is finished');\n        result.winner = _winner;\n        result.loser = _loser;\n        electionFinished = true;\n\n    }\n\n} \n\n",
  "sourcePath": "/Users/alihaghshenas/Desktop/aaaaa/predictable/contracts/Prediction.sol",
  "compiler": {
    "name": "solc",
    "version": "0.8.19+commit.7dd6d404.Emscripten.clang"
  },
  "schemaVersion": "3.4.14",
  "updatedAt": "2023-07-07T19:06:34.023Z",
  "devdoc": {
    "kind": "dev",
    "methods": {},
    "version": 1
  },
  "userdoc": {
    "kind": "user",
    "methods": {},
    "version": 1
  }
}